:020000040800F2
:1000000010070020CD01000809060008BF04000801
:100010000506000887020008B50900080000000076
:100020000000000000000000000000006107000860
:100030008B020008000000000B060008750800088D
:10004000E7010008E7010008E7010008E7010008F0
:10005000E7010008E7010008E7010008E7010008E0
:10006000E7010008E7010008E7010008E7010008D0
:10007000E7010008E7010008E7010008E7010008C0
:10008000E7010008E7010008E7010008E7010008B0
:10009000E7010008E7010008E7010008E7010008A0
:1000A000E7010008E7010008E7010008E701000890
:1000B000E701000859090008E7010008E701000806
:1000C000E7010008E7010008E7010008E701000870
:1000D000E7010008E7010008E7010008E701000860
:1000E000E7010008E7010008E7010008E701000850
:1000F000E7010008E7010008E7010008E701000840
:10010000E7010008E7010008E7010008E70100082F
:10011000E7010008E7010008E7010008E70100081F
:10012000E7010008E7010008E7010008E70100080F
:1001300000F002F800F03AF80AA090E8000C8244BF
:100140008344AAF10107DA4501D100F02FF8AFF29C
:10015000090EBAE80F0013F0010F18BFFB1A43F0A5
:100160000103184794160000B4160000103A24BF8B
:1001700078C878C1FAD8520724BF30C830C144BF0C
:1001800004680C607047000000230024002500264E
:10019000103A28BF78C1FBD8520728BF30C148BFEA
:1001A0000B6070471FB51FBD10B510BD00F031F8D2
:1001B0001146FFF7F7FF00F08DFD00F04FF803B494
:1001C000FFF7F2FF03BC00F057F800000948804732
:1001D00009480047FEE7FEE7FEE7FEE7FEE7FEE729
:1001E000FEE7FEE7FEE7FEE704480549054A064B41
:1001F00070470000F90800083101000810010020D4
:1002000010070020100300201003002070477047E3
:100210007047754600F02CF8AE4605006946534617
:1002200020F00700854618B020B5FFF7DDFFBDE8D8
:1002300020404FF000064FF000074FF000084FF04D
:10024000000B21F00701AC46ACE8C009ACE8C009DE
:10025000ACE8C009ACE8C0098D46704710B504464B
:10026000AFF300802046BDE81040FFF7A8BF0000B4
:1002700000487047B000002001491820ABBEFEE7DF
:1002800026000200704700BFFEE7704701B502E09C
:100290000098401E009000980028F9D108BD000089
:1002A0001A49095C01F00101194A11601749095CFA
:1002B000C1F34001174AC2F890111449095CC1F317
:1002C0008001134A083211601049095CC1F3C00172
:1002D000104AC2F898110D49095CC1F300110C4A8B
:1002E000103211600949095CC1F34011121D1160FF
:1002F0000649095CC1F38011121D11600349095CB4
:10030000C909044AC2F8A811704700004200002041
:100310008C812142008021421C49095C01F00101CD
:100320001B4A11601949095CC1F34001194AC2F81E
:1003300084111649095CC1F38001154A0832116025
:100340001249095CC1F3C001124AC2F88C110F496D
:10035000095CC1F300110E4A103211600B49095CAF
:10036000C1F34011121D11600849095CC1F38011ED
:10037000121D11600549095CC909121D1160002197
:10038000121D1160034AC2F8A41170473800002002
:1003900080812342008023422DE9F041024600255E
:1003A0000026002000230024002791F803C00CF051
:1003B0000F0591F803C00CF0100CBCF1000F03D036
:1003C00091F802C04CEA050591F800C0BCF1000F9D
:1003D00031D0146800202BE04FF0010C0CFA00F330
:1003E000B1F800C00CEA03069E4220D183004FF012
:1003F0000F0C0CFA03F7BC4305FA03FC4CEA0404A7
:1004000091F803C0BCF1280F06D14FF0010C0CFA93
:1004100000FCC2F814C00AE091F803C0BCF1480F18
:1004200005D14FF0010C0CFA00FCC2F810C0401CC2
:100430000828D1D31460B1F800C0BCF1FF0F34DD3F
:10044000546800202EE000F1080C4FF0010808FA73
:100450000CF3B1F800C00CEA03069E4221D18300E0
:100460004FF00F0C0CFA03F7BC4305FA03FC4CEAFF
:10047000040491F803C0BCF1280F05D100F1080C69
:1004800008FA0CF8C2F8148091F803C0BCF1480FC8
:1004900007D100F1080C4FF0010808FA0CF8C2F877
:1004A0001080401C0828CED35460BDE8F08101467E
:1004B000886880B27047416170470161704700BF32
:1004C000FEE7000008B50121042000F09FF80F208E
:1004D000ADF8000001208DF8020010208DF8030017
:1004E00069460A48FFF758FFF020ADF800000120E8
:1004F0008DF8020028208DF8030069460348FFF7B5
:100500004BFF0F210148FFF7D8FF08BD000801404D
:1005100008B50121102000F079F8FF20ADF80000A7
:1005200010208DF8030003208DF80200694604486E
:10053000FFF732FFFF210248FFF7BFFF08BD0000B1
:100540000010014008B50121082000F05FF84FF4C9
:10055000FF60ADF8000010208DF8030003208DF837
:10056000020069460D48FFF717FF4FF4FF610B4883
:10057000FFF7A3FF0121402000F048F8FF20ADF86D
:10058000000010208DF8030069460548FFF704FFBE
:10059000FF210348FFF78FFF08BD0000000C01405A
:1005A0000018014008B50121202000F02FF8FF209D
:1005B000ADF8000010208DF8030003208DF8020034
:1005C00069460E48FFF7E8FEFF210C48FFF775FF6C
:1005D0000121802000F01AF840F2FF30ADF8000051
:1005E00010208DF8030069460548FFF7D5FE40F25C
:1005F000FF310348FFF761FF08BD00000014014010
:10060000001C014000BFFEE77047704729B1064A51
:1006100092690243044B9A6104E0034A926982435F
:10062000014B9A61704700000010024010B54FF076
:10063000FF344A48FFF73BFFC0B20F2874D0474849
:10064000FFF735FFC0B20F28F8D001214348FFF76C
:1006500034FF0E214148FFF72EFF4048FFF727FFE8
:10066000C0B2112806D0212806D0412806D0812802
:1006700008D105E0002405E0042403E0082401E09B
:100680000C2400BF00BF02213448FFF716FF0D21E4
:100690003248FFF710FF3148FFF709FFC0B21228B8
:1006A00006D0222806D0422806D0822808D105E0AC
:1006B000012405E0052403E0092401E00D2400BF26
:1006C00000BF04212548FFF7F8FE0B212348FFF760
:1006D000F2FE2248FFF7EBFEC0B2142806D0242811
:1006E00006D0442806D0842808D105E0022405E07D
:1006F000062403E00A2401E00E2400BF00BF082105
:100700001648FFF7DAFE07211448FFF7D4FE134816
:10071000FFF7CDFEC0B2182807D0282807D04828F8
:1007200007D0882809D106E015E0032405E0072456
:1007300003E00B2401E00F2400BF00BF0F21074896
:10074000FFF7BBFE00BF0548FFF7B1FEC0B20F28A0
:10075000F9D1204610BD4FF0FF30FBE70008014003
:10076000704710B500F002F810BD00000CB5002075
:10077000019000903348006840F4803031490860AF
:1007800000BF3048006800F4003000900198401C21
:100790000190009818B90198B0F5A06FF1D12948DF
:1007A000006800F4003010B10120009001E000204A
:1007B00000900098012843D12348006840F01000C1
:1007C000214908600846006820F0030008600846D8
:1007D000006840F0020008601A4840681949486003
:1007E0000846406848600846406840F480604860B9
:1007F0000846406820F47C1048600846406840F491
:10080000E81048600846006840F08070086000BF4B
:100810000C48006800F000700028F9D009484068D2
:1008200020F00300074948600846406840F0020095
:10083000486000BF0348406800F00C000828F9D168
:100840000CBD00000010024000200240042808D126
:100850004FF0E021096941F004014FF0E0221161FD
:1008600007E04FF0E021096921F004014FF0E02298
:10087000116170477047000070B50420FFF7E6FF74
:100880001A4800684FF47A72B0FBF2F1B1F1807F40
:1008900001D301201DE021F07F40401E4FF0E022F7
:1008A000506150170F22002807DA13071D0E104B56
:1008B00000F00F04241F1D5503E013071C0E0D4B01
:1008C0001C5400BF00204FF0E0229061072010610F
:1008D000002008B100BFFEE74FF0E020006920F0E3
:1008E00001004FF0E021086170BD00009C00002075
:1008F00018ED00E000E400E010B51348006840F097
:1009000001001149086008464068104908400E4936
:100910004860084600680E4908400B4908600846D0
:10092000006820F4802008600846406820F4FE003B
:1009300048604FF41F008860FFF713FF4FF000601E
:100940000449086010BD0000001002400000FFF8DC
:10095000FFFFF6FE08ED00E010B50121094800F0A8
:1009600018F870B10121074800F010F80648007827
:10097000401C05490870084600780C2801D1002069
:10098000087010BD0004004004000020CA43028229
:10099000704730B50246002000230024158A05EA7E
:1009A0000103958905EA010413B10CB1012000E0AF
:1009B000002030BD00BFFEE710B5FFF737FE5B49F2
:1009C000088008460088002838D1594908605949EC
:1009D000086014205849086058490860092058499F
:1009E00008600320574908600A2057490860092019
:1009F0005649086003205649086001215548FFF711
:100A00005CFD04215348FFF758FD10215148FFF7C2
:100A100054FD20214F48FFF750FD40214D48FFF77E
:100A20004CFD02214B48FFF746FD08214948FFF7DE
:100A300042FD80214748FFF73EFD75E03B480088B6
:100A4000012838D10A203C49086000203849086054
:100A5000384908603A4908603A4908600A2037492D
:100A600008601420384908600920384908600320CC
:100A70003749086002213748FFF71FFD0421354838
:100A8000FFF71BFD08213348FFF717FD20213148F0
:100A9000FFF713FD40212F48FFF70FFD01212D48DF
:100AA000FFF709FD10212B48FFF705FD802129489C
:100AB000FFF701FD38E01D480088022834D10020EE
:100AC0001B4908601B4908601D4908601D490860F2
:100AD0001E4908601E4908600A2018490860142051
:100AE000154908601849086002211A48FFF7E5FC1B
:100AF00004211848FFF7E1FC10211648FFF7DDFC40
:100B000020211448FFF7D9FC80211248FFF7D5FCBB
:100B100001211048FFF7CFFC08210E48FFF7CBFC5E
:100B200040210C48FFF7C7FC10BD00000600002064
:100B300010000020140000202C00002028000020BD
:100B4000180000201C0000203000002020000020A1
:100B5000240000200010014010B56FF00400FFF7E2
:100B600075FE0A4800680A49B0FBF1F009490870AF
:100B70000846007800EB4001C1EBC0104FF6FF7152
:100B800001EAC0000449088010BD00009C0000205C
:100B900000127A0000000020020000200146114AE5
:100BA00012884A434FF0E0235A6100229A611A46A4
:100BB000126942F001021A6100BF4FF0E022106991
:100BC00000F001021AB100F48032002AF5D04FF093
:100BD000E022126922F001024FF0E0231A610022A4
:100BE0009A6170470200002010B55020FFF758FBB3
:100BF0000020364908600120FFF7D0FF012034496A
:100C0000C1F880015120FFF74BFB00202F49091D3F
:100C100008600120FFF7C2FF01202D49C1F88401BF
:100C20005220FFF73DFB00202849083108600120D1
:100C3000FFF7B4FF01202649C1F888015320FFF7D0
:100C40002FFB00202249C1F88C010120FFF7A6FFED
:100C500001201F49C1F88C015420FFF721FB00201F
:100C60001B49C1F890010120FFF798FF01201849A6
:100C7000C1F890015520FFF713FB00201449C1F87B
:100C800094010120FFF78AFF01201149C1F8940166
:100C90005620FFF705FB00200D49C1F898010120FF
:100CA000FFF77CFF01200A49C1F898015720FFF7A0
:100CB000F7FA00200649C1F89C010120FFF76EFFFA
:100CC00001200349C1F89C0110BD000080012342AE
:100CD00000002342FFF7D0FDFFF7F4FBFFF73CFFD6
:100CE000FFF730FCFFF714FCFFF75CFCE5E30221A3
:100CF000FE48FFF7E2FB0421FC48FFF7DEFB102172
:100D0000FA48FFF7DAFB2021F848FFF7D6FB40212D
:100D1000F648FFF7D2FB8021F448FFF7CEFB012114
:100D2000F248FFF7C8FBF248FFF7B0FA0821EF4896
:100D3000FFF7C1FBEE48FFF7A9FA4021EB48FFF7A8
:100D4000BAFBEB48FFF7A2FA0820EA490860022044
:100D5000E94908600020E9490860E9490860E94973
:100D60000860E9490860E9490860E94908600A2023
:100D7000E84908601420E8490860E849086000254F
:100D8000CFE3FFF719FEE1480068DA4909688842B5
:100D90007EDA0221D548FFF790FB0421D348FFF704
:100DA0008CFB1021D148FFF788FB2021CF48FFF7AB
:100DB00084FB8021CD48FFF780FB0121CB48FFF762
:100DC0007AFB0821C948FFF776FB4021C748FFF7A7
:100DD00072FBCE480068401CCC490860FFF704FF56
:100DE000CD4800680A2190FBF1F6CB48006890FBE3
:100DF000F1F201FB1207C748006890FBF1F8C54803
:100E0000006890FBF1F201FB1209642467E0FFF730
:100E1000EBFEFFF7D1FDBD480068B649096888427E
:100E200000DB5EE0F0B2FFF777FA0020BC49086013
:100E30000120FFF7B3FE0120BA49C1F88001F8B2E2
:100E4000FFF76AFA0020B649091D08600120FFF784
:100E5000A5FE0120B349C1F8840108F0FF00FFF7A7
:100E60005BFA0020AE490C3108600120FFF796FEC6
:100E70000120AC49C1F88C0109F0FF00FFF74CFAE2
:100E80000020A849C1F890010120FFF787FE00E08B
:100E900033E00120A349C1F890010020FFF73CFA9C
:100EA0000020A049C1F898010120FFF777FE01203A
:100EB0009C49C1F898018F490978944A1278891A97
:100EC000C8B2FFF729FA00209649C1F89C01012019
:100ED000FFF764FE01209349C1F89C01641E002CB9
:100EE00095DA00BF8C480068401E8B49086089482D
:100EF0000068401E87490860EEE3FFF75DFD00F0E3
:100F000005FC834800687C49096888427EDA80488D
:100F10000068401C7E4908600846006876490968F8
:100F200088420DD14FF400717F48FFF7C6FA4FF4A5
:100F3000FA70FFF733FE4FF400717B48FFF7BBFAFE
:100F4000754800680A2190FBF1F67348006890FB31
:100F5000F1F201FB12076F48006890FBF1F86D4851
:100F6000006890FBF1F201FB1209642467E000F0D5
:100F7000CDFBFFF721FD664800685F49096888429C
:100F800000DB5EE0F0B2FFF7C7F9002064490860BB
:100F90000120FFF703FE01206249C1F88001F8B289
:100FA000FFF7BAF900205E49091D08600120FFF72C
:100FB000F5FD01205B49C1F8840108F0FF00FFF74F
:100FC000ABF9002056490C3108600120FFF7E6FD1F
:100FD00001205449C1F88C0109F0FF00FFF79CF98A
:100FE00000205049C1F890010120FFF7D7FD0120F2
:100FF0004C49C1F890010020FFF78EF900204949C3
:10100000C1F898010120FFF7C9FD00E030E00120A0
:101010004449C1F89801384909783D4A1278891A3B
:10102000C8B2FFF779F900203E49C1F89C010120C0
:10103000FFF7B4FD01203B49C1F89C01641E002C60
:1010400095DA00BF34480068401E334908603148D3
:101050000068401E2F49086080212448FFF72BFAC2
:101060002348FFF713F940212048FFF726FA33E31E
:10107000FFF7A2FC00F04AFB224800681D490968FE
:1010800088427DDA02211948FFF717FA0421174830
:10109000FFF713FA08211548FFF70FFA202113482C
:1010A000FFF70BFA40211148FFF707FA01210F481B
:1010B000FFF701FA10210D48FFF7FDF980210B48D9
:1010C000FFF7F9F90F480068401C0E490860124804
:1010D00000680A2190FBF1F60F48006890FBF1F2DE
:1010E00001FB12070D48006820E0000000100140DD
:1010F000EFFF0F00080000200C000020100000206F
:1011000014000020180000201C00002020000020F7
:1011100024000020280000202C00002030000020A7
:101120008081224200802242000C014090FBF1F8B5
:10113000FC48006890FBF1F201FB1209642467E0AF
:1011400000F0E4FAFFF738FCF7480068F74909684F
:10115000884200DB5EE0F0B2FFF7DEF80020F449E1
:1011600008600120FFF71AFD0120F249C1F8800153
:10117000F8B2FFF7D1F80020ED49091D086000E042
:1011800054E00120FFF70AFD0120EA49C1F884017B
:101190000020FFF7C1F80020E5490C31086001206C
:1011A000FFF7FCFC0120E349C1F88C01DF49097815
:1011B000DD4A1278891AC8B2FFF7AEF80020DD497F
:1011C000C1F890010120FFF7E9FC0120D849103156
:1011D000086008F0FF00FFF79FF80020D549C1F82C
:1011E00098010120FFF7DAFC0120D149183108608D
:1011F00009F0FF00FFF790F80020CE49C1F89C01EC
:101200000120FFF7CBFC0120CA49C1F89C01641EF4
:10121000002C95DA00BFC8480068401EC649086027
:10122000C0480068401EBF49086055E2FFF7C4FB94
:1012300000F06CFAC1480068C149096888427CDA4C
:10124000BE480068401CBD49086008460068BC49AB
:10125000096888420DD14FF40071BA48FFF72DF9A3
:101260004FF4FA70FFF79AFC4FF40071B548FFF79E
:1012700022F91021B448FFF720F92021B248FFF7E6
:101280001AF9B248FFF702F81420B1490860AA48D9
:1012900000680A2190FBF1F6A748006890FBF1F284
:1012A00001FB12079F48006890FBF1F89D48006819
:1012B00090FBF1F201FB1209642467E000F026FACA
:1012C000FFF77AFB9D4800689D490968884200DB6A
:1012D0005EE0F0B2FFF720F8002095490860012099
:1012E000FFF75CFC01209349C1F88001F8B2FFF7D9
:1012F00013F800208E49091D08600120FFF74EFCFD
:1013000001208C49C1F884010020FFF705F8002076
:1013100087490C3108600120FFF740FC0120854916
:10132000C1F88C0186490978844A1278891AC8B2B2
:10133000FEF7F2FF00207F4900E035E0C1F89001A0
:101340000120FFF72BFC012079491031086008F0DB
:10135000FF00FEF7E1FF00207649C1F89801012067
:10136000FFF71CFC012072491831086009F0FF00EA
:10137000FEF7D2FF00206F49C1F89C010120FFF762
:101380000DFC01206B49C1F89C01641E002C95DA0C
:1013900000BF69480068401E6749086061480068EE
:1013A000401E6049086097E1FFF706FB00F0AEF9C8
:1013B000684800685D49096888427DDA65480068C8
:1013C000401C6449086001215F48FFF776F804215A
:1013D0005D48FFF772F810215B48FFF76EF8202197
:1013E0005948FFF76AF840215748FFF766F802218D
:1013F0005548FFF760F808215348FFF75CF8802153
:101400005148FFF758F8524800680A2190FBF1F65E
:101410004F48006890FBF1F201FB12074148006859
:1014200090FBF1F83F48006890FBF1F201FB1209D4
:10143000642468E000F06AF9FFF7BEFA45480068E6
:101440003A490968884200DB5FE00020FEF764FF4C
:101450000020374908600120FFF7A0FB0120354933
:10146000C1F88001314909783A4A1278891AC8B21C
:10147000FEF752FF00202E49091D08600120FFF7EA
:101480008DFB01202B49C1F88401F0B2FEF744FF27
:10149000002027490C3108600120FFF77FFB012065
:1014A0002449C1F88C01F8B2FEF736FF002021492B
:1014B000C1F89001012001E04EE012E1FFF76EFB60
:1014C00001201B491031086008F0FF00FEF724FFDF
:1014D00000201849C1F898010120FFF75FFB0120A7
:1014E00013491831086009F0FF00FEF715FF0020CE
:1014F0001049C1F89C010120FFF750FB01200D4964
:10150000C1F89C01641E002C94DA00BF10480068EA
:10151000401E0F49086003480068401E01490860EA
:10152000DAE0DAE030000020180000200800002097
:1015300080812242008022422C0000201C000020DA
:101540000C000020000C014000100140EFFF0F00D4
:101550002800002010000020FFF72EFA00F0D6F837
:10156000614800686149096888427DDA5E48006820
:10157000401C5D490860084600685C49096888426B
:101580000DD14FF400715A48FEF797FF4FF4FA70EF
:10159000FFF704FB4FF400715548FEF78CFF08215C
:1015A0005448FEF788FF02215248FEF786FF0421C7
:1015B0005048FEF780FF5048FEF768FE4F4800682D
:1015C0000A2190FBF1F64D48006890FBF1F201FB17
:1015D00012074B48006890FBF1F84948006890FBFF
:1015E000F1F201FB1209642467E000F08FF8FFF7C5
:1015F000E3F93D4800683D490968884200DB5EE048
:101600000020FEF789FE00203E4908600120FFF718
:10161000C5FA01203C49C1F8800134490978324AB1
:101620001278891AC8B2FEF777FE00203549091DE5
:1016300008600120FFF7B2FA01203349C1F88401A4
:10164000F0B2FEF769FE00202E490C31086001203F
:10165000FFF7A4FA01202C49C1F88C01F8B2FEF77B
:101660005BFE0020284900E035E0C1F89001012030
:10167000FFF794FA012023491031086008F0FF00B9
:10168000FEF74AFE00202049C1F898010120FFF72B
:1016900085FA01201B491831086009F0FF00FEF7A8
:1016A0003BFE00201849C1F89C010120FFF776FAA3
:1016B00001201549C1F89C01641E002C95DA00BF79
:1016C0000F480068401E0E4908600C480068401E24
:1016D0000A49086000E003E06D1C002DBFF651AB25
:1016E00000BFFFF704BB0000140000200C00002026
:1016F000000C014000100140EFFF0F002800002007
:1017000030000020808122420080224210B540201B
:10171000FEF7C6FD0020364908600120FFF73EFABB
:1017200001203449C1F880014120FEF7B9FD0020B5
:101730002F49091D08600120FFF730FA01202D49CB
:10174000C1F884014220FEF7ABFD00202849083192
:1017500008600120FFF722FA01202649C1F888011C
:101760004320FEF79DFD00202249C1F88C01012095
:10177000FFF714FA01201F49C1F88C014420FEF73D
:101780008FFD00201B49C1F890010120FFF706FAE8
:1017900001201849C1F890014520FEF781FD002085
:1017A0001449C1F894010120FFF7F8F9012011490B
:1017B000C1F894014620FEF773FD00200D49C1F8E1
:1017C00098010120FFF7EAF901200A49C1F89801C0
:1017D0004720FEF765FD00200649C1F89C01012065
:1017E000FFF7DCF901200349C1F89C0110BD00009E
:1017F0008001234200002342181800080000002046
:10180000B00000006C010008C8180008B0000020FB
:1018100060060000880100080000000000000000D1
:1018200008000000020000000000000000000000AE
:1018300000000000000000000000000000000000A8
:101840000A00000014000000140000000000000066
:10185000C0F9A4B0999282F88090FF99667E7EBD0F
:10186000DBE7E7DBDBDBDBDBDBE7E7C7A7E7E7E7BC
:10187000E7E7C39999F1E3C78F81C399F9E3E3F9E6
:1018800099C3F3E3C393B381F3F3C39F9F83C1F978
:10189000F9C39999999999999999E7E7E7E7E7FF42
:1018A000E7E7DF800080D8F8F8F8E7C38100E7E7D2
:1018B000E7E7000000A24A0400000000000000006A
:0818C0000102030406070809F8
:0400000508000131BD
:00000001FF
