:020000040800F2
:1000000010070020CD0100086D050008230400083A
:100010006905000887020008E507000800000000E5
:100020000000000000000000000000009105000832
:100030008B020008000000006F050008A5060008FC
:10004000E7010008E7010008E7010008E7010008F0
:10005000E7010008E7010008E7010008E7010008E0
:10006000E7010008E7010008E7010008E7010008D0
:10007000E7010008E7010008E7010008E7010008C0
:10008000E7010008E7010008E7010008E7010008B0
:10009000E7010008E7010008E7010008E7010008A0
:1000A000E7010008E7010008E7010008E701000890
:1000B000E701000889070008E7010008E7010008D8
:1000C000E7010008E7010008E7010008E701000870
:1000D000E7010008E7010008E7010008E701000860
:1000E000E7010008E7010008E7010008E701000850
:1000F000E7010008E7010008E7010008E701000840
:10010000E7010008E7010008E7010008E70100082F
:10011000E7010008E7010008E7010008E70100081F
:10012000E7010008E7010008E7010008E70100080F
:1001300000F002F800F03AF80AA090E8000C8244BF
:100140008344AAF10107DA4501D100F02FF8AFF29C
:10015000090EBAE80F0013F0010F18BFFB1A43F0A5
:1001600001031847580D0000780D0000103A24BF15
:1001700078C878C1FAD8520724BF30C830C144BF0C
:1001800004680C607047000000230024002500264E
:10019000103A28BF78C1FBD8520728BF30C148BFEA
:1001A0000B6070471FB51FBD10B510BD00F031F8D2
:1001B0001146FFF7F7FF00F0D7FB00F04FF803B44C
:1001C000FFF7F2FF03BC00F057F800000948804732
:1001D00009480047FEE7FEE7FEE7FEE7FEE7FEE729
:1001E000FEE7FEE7FEE7FEE704480549054A064B41
:1001F00070470000290700083101000810010020A5
:1002000010070020100300201003002070477047E3
:100210007047754600F02CF8AE4605006946534617
:1002200020F00700854618B020B5FFF7DDFFBDE8D8
:1002300020404FF000064FF000074FF000084FF04D
:10024000000B21F00701AC46ACE8C009ACE8C009DE
:10025000ACE8C009ACE8C0098D46704710B504464B
:10026000AFF300802046BDE81040FFF7A8BF0000B4
:1002700000487047B000002001491820ABBEFEE7DF
:1002800026000200704700BFFEE770471A49095C6C
:1002900001F00101194A11601749095CC1F34001DD
:1002A000174AC2F884111449095CC1F38001134A4A
:1002B000083211601049095CC1F3C001104AC2F84C
:1002C0008C110D49095CC1F300110C4A1032116008
:1002D0000949095CC1F34011121D11600649095C0E
:1002E000C1F38011121D11600349095CC909044A58
:1002F000C2F89C117047000042000020800121429A
:10030000000021422DE9F041024600250026002090
:1003100000230024002791F803C00CF00F0591F88A
:1003200003C00CF0100CBCF1000F03D091F802C018
:100330004CEA050591F800C0BCF1000F31D01468FB
:1003400000202BE04FF0010C0CFA00F3B1F800C0D4
:100350000CEA03069E4220D183004FF00F0C0CFAEA
:1003600003F7BC4305FA03FC4CEA040491F803C00C
:10037000BCF1280F06D14FF0010C0CFA00FCC2F8BA
:1003800014C00AE091F803C0BCF1480F05D14FF04A
:10039000010C0CFA00FCC2F810C0401C0828D1D394
:1003A0001460B1F800C0BCF1FF0F34DD54680020C8
:1003B0002EE000F1080C4FF0010808FA0CF3B1F838
:1003C00000C00CEA03069E4221D183004FF00F0CBF
:1003D0000CFA03F7BC4305FA03FC4CEA040491F859
:1003E00003C0BCF1280F05D100F1080C08FA0CF885
:1003F000C2F8148091F803C0BCF1480F07D100F196
:10040000080C4FF0010808FA0CF8C2F81080401CE4
:100410000828CED35460BDE8F08141617047016186
:10042000704700BFFEE7000008B50121042000F07E
:100430009FF80F20ADF8000001208DF80200102079
:100440008DF8030069460A48FFF75CFFF020ADF81D
:10045000000001208DF8020028208DF80300694675
:100460000348FFF74FFF0F210148FFF7D8FF08BDF2
:100470000008014008B50121102000F079F8FF20A4
:10048000ADF8000010208DF8030003208DF8020065
:1004900069460448FFF736FFFF210248FFF7BFFF18
:1004A00008BD00000010014008B50121082000F03F
:1004B0005FF84FF4FF60ADF8000010208DF80300E6
:1004C00003208DF8020069460D48FFF71BFF4FF42B
:1004D000FF610B48FFF7A3FF0121402000F048F81F
:1004E000FF20ADF8000010208DF803006946054894
:1004F000FFF708FFFF210348FFF78FFF08BD00004B
:10050000000C01400018014008B50121202000F036
:100510002FF8FF20ADF8000010208DF80300032015
:100520008DF8020069460E48FFF7ECFEFF210C48EB
:10053000FFF775FF0121802000F01AF840F2FF302C
:10054000ADF8000010208DF8030069460548FFF75C
:10055000D9FE40F2FF310348FFF761FF08BD0000FC
:1005600000140140001C014000BFFEE770477047C7
:1005700029B1064A92690243044B9A6104E0034A96
:1005800092698243014B9A6170470000001002405B
:10059000704710B500F002F810BD00000CB5002047
:1005A000019000903348006840F480303149086081
:1005B00000BF3048006800F4003000900198401CF3
:1005C0000190009818B90198B0F5A06FF1D12948B1
:1005D000006800F4003010B10120009001E000201C
:1005E00000900098012843D12348006840F0100093
:1005F000214908600846006820F0030008600846AA
:10060000006840F0020008601A48406819494860D4
:100610000846406848600846406840F4806048608A
:100620000846406820F47C1048600846406840F462
:10063000E81048600846006840F08070086000BF1D
:100640000C48006800F000700028F9D009484068A4
:1006500020F00300074948600846406840F0020067
:10066000486000BF0348406800F00C000828F9D13A
:100670000CBD00000010024000200240042808D1F8
:100680004FF0E021096941F004014FF0E0221161CF
:1006900007E04FF0E021096921F004014FF0E0226A
:1006A000116170477047000070B50420FFF7E6FF46
:1006B0001A4800684FF47A72B0FBF2F1B1F1807F12
:1006C00001D301201DE021F07F40401E4FF0E022C9
:1006D000506150170F22002807DA13071D0E104B28
:1006E00000F00F04241F1D5503E013071C0E0D4BD3
:1006F0001C5400BF00204FF0E022906107201061E1
:10070000002008B100BFFEE74FF0E020006920F0B4
:1007100001004FF0E021086170BD00009C00002046
:1007200018ED00E000E400E010B51348006840F068
:1007300001001149086008464068104908400E4908
:100740004860084600680E4908400B4908600846A2
:10075000006820F4802008600846406820F4FE000D
:1007600048604FF41F008860FFF713FF4FF00060F0
:100770000449086010BD0000001002400000FFF8AE
:10078000FFFFF6FE08ED00E010B50121094800F07A
:1007900018F870B10121074800F010F806480078F9
:1007A000401C05490870084600780C2801D100203B
:1007B000087010BD0004004004000020CA430282FB
:1007C000704730B50246002000230024158A05EA50
:1007D0000103958905EA010413B10CB1012000E081
:1007E000002030BD00BFFEE710B56FF00400FFF73A
:1007F00045FF0A4800680A49B0FBF1F00949087052
:100800000846007800EB4001C1EBC0104FF6FF71C5
:1008100001EAC0000449088010BD00009C000020CF
:1008200000127A0000000020020000200146114A58
:1008300012884A434FF0E0235A6100229A611A4617
:10084000126942F001021A6100BF4FF0E022106904
:1008500000F001021AB100F48032002AF5D04FF006
:10086000E022126922F001024FF0E0231A61002217
:100870009A617047020000207047704710B5282029
:10088000FFF704FD0020364908600120FFF7CEFF86
:1008900001203449C1F880012920FFF7F7FC00202E
:1008A0002F49091D08600120FFF7C0FF01202D49D5
:1008B000C1F884012A20FFF7E9FC0020284908310B
:1008C00008600120FFF7B2FF01202649C1F8880126
:1008D0002B20FFF7DBFC00202249C1F88C0101200E
:1008E000FFF7A4FF01201F49C1F88C012C20FFF75E
:1008F000CDFC00201B49C1F890010120FFF796FFB5
:1009000001201849C1F890012D20FFF7BFFC0020FD
:100910001449C1F894010120FFF788FF0120114913
:10092000C1F894012E20FFF7B1FC00200D49C1F859
:1009300098010120FFF77AFF01200A49C1F89801C8
:100940002F20FFF7A3FC00200649C1F89C010120DD
:10095000FFF76CFF01200349C1F89C0110BD0000A6
:100960008001234200002342FFF79EFEFFF75CFD5B
:10097000FFF73AFFFFF798FDFFF77CFDFFF7C4FD97
:100980004CE0002402E000F023FA641C642CFADB43
:10099000002402E000F044F8641C642CFADB00241C
:1009A00002E000F02BF9641C642CFADB002402E066
:1009B00000F0AEF8641C642CFADB002402E0FFF7C0
:1009C0005DFF641C642CFADB002402E0FFF755FF96
:1009D000641C642CFADB002402E000F098F8641C2C
:1009E000642CFADB002402E000F090F8641C642C14
:1009F000FADB002402E0FFF73FFF641C642CFADB03
:100A0000002402E000F00BF8641C642CFADB0024E4
:100A100002E000F069F9641C642CFADBB1E770476E
:100A200010B51020FFF732FC002036490860012085
:100A3000FFF7FCFE01203449C1F880011120FFF7C7
:100A400025FC00202F49091D08600120FFF7EEFE5C
:100A500001202D49C1F884011220FFF717FC002066
:100A60002849083108600120FFF7E0FE01202649EF
:100A7000C1F888011320FFF709FC00202249C1F8C2
:100A80008C010120FFF7D2FE01201F49C1F88C0123
:100A90001420FFF7FBFB00201B49C1F89001012047
:100AA000FFF7C4FE01201849C1F890011520FFF797
:100AB000EDFB00201449C1F894010120FFF7B6FEB8
:100AC00001201149C1F894011620FFF7DFFB002037
:100AD0000D49C1F898010120FFF7A8FE01200A493D
:100AE000C1F898011720FFF7D1FB00200649C1F893
:100AF0009C010120FFF79AFE01200349C1F89C01E7
:100B000010BD00008001234200002342704770475F
:100B100010B52020FFF7BAFB0020364908600120FD
:100B2000FFF784FE01203449C1F880012120FFF73E
:100B3000ADFB00202F49091D08600120FFF776FE5C
:100B400001202D49C1F884012220FFF79FFB0020DE
:100B50002849083108600120FFF768FE0120264976
:100B6000C1F888012320FFF791FB00202249C1F83A
:100B70008C010120FFF75AFE01201F49C1F88C01AA
:100B80002420FFF783FB00201B49C1F890010120BE
:100B9000FFF74CFE01201849C1F890012520FFF70E
:100BA00075FB00201449C1F894010120FFF73EFEB7
:100BB00001201149C1F894012620FFF767FB0020AE
:100BC0000D49C1F898010120FFF730FE01200A49C4
:100BD000C1F898012720FFF759FB00200649C1F80A
:100BE0009C010120FFF722FE01200349C1F89C016E
:100BF00010BD0000800123420000234210B51820E0
:100C0000FFF744FB0020364908600120FFF70EFE85
:100C100001203449C1F880011920FFF737FB00207B
:100C20002F49091D08600120FFF700FE01202D4912
:100C3000C1F884011A20FFF729FB00202849083158
:100C400008600120FFF7F2FD01202649C1F8880164
:100C50001B20FFF71BFB00202249C1F88C0101205B
:100C6000FFF7E4FD01201F49C1F88C011C20FFF7AC
:100C70000DFB00201B49C1F890010120FFF7D6FDB4
:100C800001201849C1F890011D20FFF7FFFA00204C
:100C90001449C1F894010120FFF7C8FD0120114952
:100CA000C1F894011E20FFF7F1FA00200D49C1F8A8
:100CB00098010120FFF7BAFD01200A49C1F8980107
:100CC0001F20FFF7E3FA00200649C1F89C0101202C
:100CD000FFF7ACFD01200349C1F89C0110BD0000E5
:100CE000800123420000234210B50020FFF7CEFA16
:100CF0000020354908600120FFF798FD01203349A5
:100D0000C1F88001FFF7C2FA00202F49091D0860D1
:100D10000120FFF78BFD01202C49C1F8840102203E
:100D2000FFF7B4FA00202849083108600120FFF7D6
:100D30007DFD01202549C1F888010320FFF7A6FAAF
:100D400000202249C1F88C010120FFF76FFD01202E
:100D50001E49C1F88C010420FFF798FA00201B49B6
:100D6000C1F890010120FFF761FD01201749C1F88A
:100D700090010520FFF78AFA00201449C1F8940178
:100D80000120FFF753FD01201049C1F8940106200E
:100D9000FFF77CFA00200D49C1F898010120FFF708
:100DA00045FD01200949C1F898010720FFF76EFAB7
:100DB00000200649C1F89C010120FFF737FD012002
:100DC0000249C1F89C0110BD80012342000023426A
:100DD00010B50820FFF75AFA0020364908600120B4
:100DE000FFF724FD01203449C1F880010920FFF7F5
:100DF0004DFA00202F49091D08600120FFF716FD5C
:100E000001202D49C1F884010A20FFF73FFA002094
:100E10002849083108600120FFF708FD0120264914
:100E2000C1F888010B20FFF731FA00202249C1F8F0
:100E30008C010120FFF7FAFC01201F49C1F88C0149
:100E40000C20FFF723FA00201B49C1F89001012074
:100E5000FFF7ECFC01201849C1F890010D20FFF7C5
:100E600015FA00201449C1F894010120FFF7DEFCB7
:100E700001201149C1F894010E20FFF707FA002064
:100E80000D49C1F898010120FFF7D0FC01200A4963
:100E9000C1F898010F20FFF7F9F900200649C1F8C1
:100EA0009C010120FFF7C2FC01200349C1F89C010D
:100EB00010BD00008001234200002342DC0E000828
:100EC00000000020B00000006C0100088C0F00083A
:100ED000B00000206006000088010008000000004B
:100EE00000000000080000000200000000000000F8
:100EF00000000000000000000000000000000000F2
:100F0000000000000A0000001400000014000000AF
:100F100000000000C0F9A4B0999282F88090FF9977
:100F2000667E7EBDDBE7E7DBDBDBDBDBDBE7E7C742
:100F3000A7E7E7E7E7E7C39999F1E3C78F81C3998B
:100F4000F9E3E3F999C3F3E3C393B381F3F3C39FE5
:100F50009F83C1F9F9C3C39F9F83819999C38181FD
:100F6000F9F1E3E7E7E7C3999981819999C3C399B7
:100F70009981C1F9F9C3000000A24A0400000000F1
:0C0F80000000000001020304060708093D
:0400000508000131BD
:00000001FF
